{
  "_format": "hh-sol-artifact-1",
  "contractName": "InstantPaymentHub",
  "sourceName": "contracts/InstantPaymentHub.sol",
  "abi": [
    {
      "inputs": [],
      "stateMutability": "nonpayable",
      "type": "constructor"
    },
    {
      "anonymous": false,
      "inputs": [
        {
          "indexed": true,
          "internalType": "address",
          "name": "sender",
          "type": "address"
        },
        {
          "indexed": true,
          "internalType": "address",
          "name": "receiver",
          "type": "address"
        },
        {
          "indexed": false,
          "internalType": "uint256",
          "name": "amount",
          "type": "uint256"
        }
      ],
      "name": "PaymentMade",
      "type": "event"
    },
    {
      "inputs": [
        {
          "internalType": "address",
          "name": "",
          "type": "address"
        }
      ],
      "name": "balances",
      "outputs": [
        {
          "internalType": "uint256",
          "name": "",
          "type": "uint256"
        }
      ],
      "stateMutability": "view",
      "type": "function"
    },
    {
      "inputs": [],
      "name": "deposit",
      "outputs": [],
      "stateMutability": "payable",
      "type": "function"
    },
    {
      "inputs": [
        {
          "internalType": "address",
          "name": "recipient",
          "type": "address"
        },
        {
          "internalType": "uint256",
          "name": "amount",
          "type": "uint256"
        }
      ],
      "name": "instantPayment",
      "outputs": [],
      "stateMutability": "nonpayable",
      "type": "function"
    },
    {
      "inputs": [],
      "name": "owner",
      "outputs": [
        {
          "internalType": "address",
          "name": "",
          "type": "address"
        }
      ],
      "stateMutability": "view",
      "type": "function"
    },
    {
      "inputs": [
        {
          "internalType": "uint256",
          "name": "amount",
          "type": "uint256"
        }
      ],
      "name": "withdraw",
      "outputs": [],
      "stateMutability": "nonpayable",
      "type": "function"
    }
  ],
  "bytecode": "0x608060405234801561001057600080fd5b50336000806101000a81548173ffffffffffffffffffffffffffffffffffffffff021916908373ffffffffffffffffffffffffffffffffffffffff160217905550610730806100606000396000f3fe6080604052600436106100495760003560e01c80629007b01461004e57806327e235e3146100775780632e1a7d4d146100b45780638da5cb5b146100dd578063d0e30db014610108575b600080fd5b34801561005a57600080fd5b50610075600480360381019061007091906104f8565b610112565b005b34801561008357600080fd5b5061009e60048036038101906100999190610538565b6102a9565b6040516100ab9190610574565b60405180910390f35b3480156100c057600080fd5b506100db60048036038101906100d6919061058f565b6102c1565b005b3480156100e957600080fd5b506100f26103e3565b6040516100ff91906105cb565b60405180910390f35b610110610407565b005b80600160003373ffffffffffffffffffffffffffffffffffffffff1673ffffffffffffffffffffffffffffffffffffffff168152602001908152602001600020541015610194576040517f08c379a000000000000000000000000000000000000000000000000000000000815260040161018b90610643565b60405180910390fd5b80600160003373ffffffffffffffffffffffffffffffffffffffff1673ffffffffffffffffffffffffffffffffffffffff16815260200190815260200160002060008282546101e39190610692565b9250508190555080600160008473ffffffffffffffffffffffffffffffffffffffff1673ffffffffffffffffffffffffffffffffffffffff168152602001908152602001600020600082825461023991906106c6565b925050819055508173ffffffffffffffffffffffffffffffffffffffff163373ffffffffffffffffffffffffffffffffffffffff167f0a58819e8a8484b4b953261f35757d54a8bb44412938c22784e056a69ffa17c98360405161029d9190610574565b60405180910390a35050565b60016020528060005260406000206000915090505481565b80600160003373ffffffffffffffffffffffffffffffffffffffff1673ffffffffffffffffffffffffffffffffffffffff168152602001908152602001600020541015610343576040517f08c379a000000000000000000000000000000000000000000000000000000000815260040161033a90610643565b60405180910390fd5b3373ffffffffffffffffffffffffffffffffffffffff166108fc829081150290604051600060405180830381858888f19350505050158015610389573d6000803e3d6000fd5b5080600160003373ffffffffffffffffffffffffffffffffffffffff1673ffffffffffffffffffffffffffffffffffffffff16815260200190815260200160002060008282546103d99190610692565b9250508190555050565b60008054906101000a900473ffffffffffffffffffffffffffffffffffffffff1681565b34600160003373ffffffffffffffffffffffffffffffffffffffff1673ffffffffffffffffffffffffffffffffffffffff168152602001908152602001600020600082825461045691906106c6565b92505081905550565b600080fd5b600073ffffffffffffffffffffffffffffffffffffffff82169050919050565b600061048f82610464565b9050919050565b61049f81610484565b81146104aa57600080fd5b50565b6000813590506104bc81610496565b92915050565b6000819050919050565b6104d5816104c2565b81146104e057600080fd5b50565b6000813590506104f2816104cc565b92915050565b6000806040838503121561050f5761050e61045f565b5b600061051d858286016104ad565b925050602061052e858286016104e3565b9150509250929050565b60006020828403121561054e5761054d61045f565b5b600061055c848285016104ad565b91505092915050565b61056e816104c2565b82525050565b60006020820190506105896000830184610565565b92915050565b6000602082840312156105a5576105a461045f565b5b60006105b3848285016104e3565b91505092915050565b6105c581610484565b82525050565b60006020820190506105e060008301846105bc565b92915050565b600082825260208201905092915050565b7f496e73756666696369656e742062616c616e6365000000000000000000000000600082015250565b600061062d6014836105e6565b9150610638826105f7565b602082019050919050565b6000602082019050818103600083015261065c81610620565b9050919050565b7f4e487b7100000000000000000000000000000000000000000000000000000000600052601160045260246000fd5b600061069d826104c2565b91506106a8836104c2565b92508282039050818111156106c0576106bf610663565b5b92915050565b60006106d1826104c2565b91506106dc836104c2565b92508282019050808211156106f4576106f3610663565b5b9291505056fea2646970667358221220617b49e834c9afbeb4109bd3185b84d8ad4ed9edec9aae9eeb13379d2f0e9cb964736f6c63430008140033",
  "linkReferences": {},
  "deployedLinkReferences": {}
}